:10F800003DC0000056C0000054C0000052C00000BF
:10F8100050C000004EC000004CC000004AC00000B4
:10F8200048C0000046C0000044C0000042C00000C4
:10F8300040C000003EC000003CC000003AC00000D4
:10F8400038C0000036C0000034C0000032C00000E4
:10F8500030C000002EC000002CC000002AC00000F4
:10F8600028C0000026C0000024C0000022C0000004
:10F8700020C000001EC000001CC0000011241FBEDC
:10F88000CFEFD0E1DEBFCDBF11E0A0E0B1E0EAEA0A
:10F89000FDEF02C005900D92A230B107D9F722E02A
:10F8A000A2E0B1E001C01D92AD30B207E1F7ABD0EC
:10F8B0007AC2A6CF9091C00095FFFCCF8093C6007E
:10F8C0000895CF93982F8595859585958595805D2D
:10F8D0009F709A3014F0C7E501C0C0E3C90FEADF9A
:10F8E0008C2FCF91E7CFCF92DF92EF92FF92C12C76
:10F8F000D12C76018091C00087FD13C08FEFC81A0C
:10F90000D80AE80AF80A81E4C81682E4D8068FE02B
:10F91000E806F10478F3E0910201F0910301099502
:10F92000E9CF8091C600FF90EF90DF90CF900895CF
:10F93000CF93D9DFC82FBEDFC13614F089EA03C0E8
:10F94000C0331CF080ED8C0F01C08C2FCF91089537
:10F95000CF93EEDFC82FECDF90E1C99F800D11241B
:10F96000CF910895CF93C82FCC2319F0BCDFC1509D
:10F97000FBCFCF910895CF93C82FB5DF803239F4F4
:10F9800084E198DF8C2F96DF80E1CF9193CF809137
:10F9900004018F5F80930401853031F4E09102010E
:10F9A000F0910301CF910994CF9108959CDF8032AB
:10F9B00021F484E17FDF80E17DCF809104018F5FBE
:10F9C00080930401853029F4E0910201F091030154
:10F9D000099408958823B1F0139A2FEF31EE94E043
:10F9E000215030409040E1F700C0000013982FEF05
:10F9F00031EE94E0215030409040E1F700C000002B
:10FA00008150E8CF089594B714BE8091600088615A
:10FA1000809360001092600091FD05C0E0910201AA
:10FA2000F09103010995E0E0F0E0E49180E180933A
:10FA3000C4001092C5001092C00086E08093C200FE
:10FA400088E18093C1005098589A0B9A81E0C2DFF8
:10FA5000FF24F39448DF803309F436C08133A1F4E6
:10FA600042DF803209F07BC184E124DF81E422DFC0
:10FA700086E520DF82E51EDF80E21CDF89E41ADFF5
:10FA800083E518DF80E564C1803429F42CDF8638F3
:10FA9000D8F029DF19C0813499F425DF803811F4BA
:10FAA00082E003C0813819F481E065DFD3CF82386A
:10FAB00011F480E1FACF883909F035C083E0F5CF41
:10FAC000823421F484E14EDF71DFC4CF853411F438
:10FAD00085E0F9CF982F9D7F9035B1F3813529F4DA
:10FAE00065DF88E080936000FFCF853539F4FBDE69
:10FAF00080930601F8DE80930701E6CF8635A9F4EE
:10FB0000F2DE803371F4EFDEEEDE182FECDE111141
:10FB100002C08EE1CACF113011F486E9C6CF8AE067
:10FB2000C4CF83E01FDF80E0C0CF843609F0BDC0C2
:10FB3000DADE80930902D7DE8093080280910C02FE
:10FB40008E7F80930C02CFDE853429F480910C02E5
:10FB5000816080930C0208E011E02091080230914E
:10FB60000902C801885091408217930728F4BBDE30
:10FB7000F80181938F01F1CFB6DE803209F0EFC03A
:10FB800080910C02209106013091070180FF25C071
:10FB9000220F331F309307012093060108E011E084
:10FBA0002091080230910902C801885091408217C3
:10FBB000930708F078C0F80161918F0180910601E8
:10FBC00090910701E2D08091060190910701019682
:10FBD0009093070180930601E3CF80910701880F7E
:10FBE000880B8F2180930B02220F331F3093070164
:10FBF000209306018091080280FF09C080910802CD
:10FC00009091090201969093090280930802F8945A
:10FC1000F999FECF1127E0910601F0910701C8E0A4
:10FC2000D1E08091080290910902103091F4009186
:10FC3000570001700130D9F303E000935700E895B5
:10FC40000091570001700130D9F301E10093570092
:10FC5000E895099019900091570001700130D9F38F
:10FC600001E000935700E8951395103498F01127A0
:10FC70000091570001700130D9F305E0009357005F
:10FC8000E8950091570001700130D9F301E100932C
:10FC90005700E8953296029709F0C7CF103011F05F
:10FCA0000296E5CF112484E153C0843709F044C0A3
:10FCB0001ADE8093090217DE809308028091060104
:10FCC00090910701880F991F909307018093060177
:10FCD0000ADE90910C02853411F4916001C09E7F80
:10FCE00090930C0200DE803209F0B4CE84E1E2DDB4
:10FCF00000E010E0809108029091090208171907AE
:10FD000040F520910C02809106019091070120FF9F
:10FD100002C033D004C021FD03C0FC018491CADDC0
:10FD200080910601909107010196909307018093BD
:10FD300006010F5F1F4FDECF853771F4D4DD8032AF
:10FD400071F484E1B7DD8EE1B5DD86E9B3DD8AE0EB
:10FD5000B1DD80E1AFDD7ECE863709F4E4CE80915F
:10FD600004018F5F80930401853009F073CEE09128
:10FD70000201F091030109956DCEF999FECF92BD74
:10FD800081BDF89A992780B50895262FF999FECF5D
:10FD90001FBA92BD81BD20BD0FB6F894FA9AF99AA8
:0AFDA0000FBE01960895F894FFCFFE
:02FDAA008000D7
:040000030000F80001
:00000001FF
